:100000000C9453000C947B000C947B000C947B00AC
:100010000C947B000C9415010C947B000C947B00D9
:100020000C947B000C947B000C947B000C947B0064
:100030000C947B000C94D2000C947B000C947B00FD
:100040000C940B060C947B000C9481040C94C40457
:100050000C947B000C94DC000C947B000C947B00D3
:100060000C947B000C947B0001020408102040805B
:1000700001020408102001020408102004040404F2
:100080000404040402020202020203030303030342
:1000900000000000250028002B00000000002400C4
:1000A00027002A00800511241FBECFEFD8E0DEBF55
:1000B000CDBF11E0A0E0B1E0E8EAFDE002C00590AC
:1000C0000D92A031B107D9F712E0A0E1B1E001C073
:1000D0001D92A530B107E1F710E0C6EAD0E004C0F8
:1000E0002297FE010E94CE06C43AD107C9F70E94AA
:1000F000D6050C9490060C94000070E020E030E0EF
:100100001FC0E32FEE1FEE27EE1FA901440F551F5E
:10011000DC012C9130E0072E02C0359527950A941A
:10012000E2F721703327242B352B7F5F783018F0CE
:100130000196615070E0EE2319F0B5E02B2730589E
:100140006111DFCF80E190E0432F441F4427441F1B
:10015000220F331F442319F045E02427305801971C
:1001600099F740E150E061E070E080E090E0E0E08D
:10017000F0E8DF01A223B323AB2B11F0862B972BE2
:10018000F695E795660F771F4150510991F79F3F0C
:1001900009F490E08F3F09F480E0392F20E0282B0C
:1001A000C90108951F920F920FB60F9211240F905C
:1001B0000FBE0F901F9018951F920F920FB60F92BF
:1001C00011248F939F938091190181FD27C0809105
:1001D0007C008F7081F0813009F5809178009091DA
:1001E0007900909313018093120180917C00807FAD
:1001F00080937C0013C08091780090917900909357
:1002000011018093100180917C00807F8160809338
:100210007C00809119018260809319019F918F91D8
:100220000F900FBE0F901F9018951F920F920FB650
:100230000F9211242F933F934F935F938F939F932C
:10024000EF93FF93209184003091850080911501F8
:1002500090911601A901481B590BCA0196958795E3
:100260003093160120931501853358E0950768F007
:100270008091190180FD40C081E090E090931801C9
:10028000809317011092140137C02091170130910B
:1002900018012130310521F02230310569F50BC0FC
:1002A000853F914028F0109218011092170124C048
:1002B00082E090E01DC020911401E22FF0E0EE0FEB
:1002C000FF1FE65EFE4F948383832F5F209314010C
:1002D00080911401883051F4109218011092170186
:1002E0008091190181608093190106C081E090E03E
:1002F0009093180180931701FF91EF919F918F9137
:100300005F914F913F912F910F900FBE0F901F90D3
:1003100018951F93CF93DF9340E052EC61E070E0BB
:1003200082E591E00E94FF0410926E00CFE6D0E0DB
:100330001882109270001092190161E083E00E940F
:10034000AD0361E085E00E94AD0361E086E00E94BC
:10035000AD0361E08BE00E94AD0381EA84BD93E0D0
:1003600095BD8093B00014E01093B10017BC18BC89
:100370001092B3001092B40010922F01109230012D
:1003800010923101109232011092330160E082E04C
:100390000E94AD031092800082E08093810081E092
:1003A00088831093680010936D0085E59AEA909316
:1003B0001B0180931A0188E080931C0186E59BEA6B
:1003C000909335018093340181E480937C0086E032
:1003D00080937B008CE380937E008FEE80937A0085
:1003E000109240011092410110924301109242017B
:1003F000109244011092460110924501109247015B
:10040000DF91CF911F9108958F929F92AF92BF92EB
:10041000CF92DF92EF92FF920F931F93CF93DF93D0
:10042000C3E0D0E004E010E099249394EE24E39438
:10043000F12C82E0C82ED12C94C082E591E00E947C
:10044000140420914C0130914D012230310549F1C5
:1004500044F42115310569F02130310509F081C0DE
:1004600010C02330310589F12430310509F079C0FD
:1004700035C0853509F075C0F0924D01E0924C0110
:1004800070C0853028F010924D0110924C0169C067
:1004900080934E0110924F01D0924D01C0924C01B9
:1004A00060C090914F01E92FF0E0E85BFE4F808340
:1004B000892F8F5F80934F0190914E01981351C007
:1004C000D0934D01C0934C014CC0109250018093C9
:1004D000510110934D0100934C0143C0A090500175
:1004E000B0905101A82AB0925101A0925001809081
:1004F0004E01682D88E491E00E947D008A159B05DD
:1005000009F0812C10924D0110924C01882049F184
:10051000682D70E0615071096130710591F01CF433
:10052000672B91F014C06230710539F063307105AA
:1005300071F480914B018093B40080914A018093C3
:10054000B3008091490188BD8091480187BD909298
:100550002F0110923001109231011092320110924D
:10056000330182E591E00E94E503892B09F065CF14
:1005700080912F01882331F18091300190913101D8
:10058000A0913201B09133010196A11DB11D80935C
:10059000300190933101A0933201B0933301009761
:1005A000A240B10578F08FE780934801809349011C
:1005B00080934A0180934B018093B4008093B300F1
:1005C00088BD87BD8091190180FF28C060E18DE161
:1005D00091E00E947D0090932E0180932D018091E7
:1005E0004401882339F080914701811112C081E0D4
:1005F00090E002C080E090E0FC01EE0FFF1FE80FEA
:10060000F91FEE5BFE4F8AE191E09183808385E1E3
:100610008283809119018E7F809319018091190145
:1006200081FF5DC02091120130911301AAE7B3E56B
:100630000E949306EAE09695879577956795EA95E7
:10064000D1F760933601709337018093380190930E
:100650003901A0911001B0911101B25025E535E1A9
:1006600046E155E00E949F06F3E1969587957795C0
:100670006795FA95D1F760577E4F8F4F9F4F6093E4
:100680003A0170933B0180933C0190933D0168E0F7
:1006900086E391E00E947D0090933F0180933E01AC
:1006A00080914401882339F080914701811112C063
:1006B00081E090E002C080E090E0FC01EE0FFF1FBF
:1006C000E80FF91FEE5BFE4F84E391E09183808396
:1006D0008CE08283809119018D7F80931901809134
:1006E000400190E0EC01CC0FDD1FC80FD91FCE5B9D
:1006F000DE4F2A812223F9F080914101E881F981BE
:10070000E80FF11D60818F5F8093410182E591E0E8
:100710000E944304909141018A81981311C01A826A
:100720008091400190E0019681709927809340016B
:100730001092410105C00196817099278093400174
:10074000DF91CF911F910F91FF90EF90DF90CF90AD
:10075000BF90AF909F908F900895CF93DF9390E0DC
:10076000FC01E859FF4F4491FC01E458FF4F84918C
:10077000882341F190E0880F991FFC01E656FF4F56
:1007800025913491D90180579F4FFC018591949117
:10079000C82FD92F9FB7F8948C91611106C040954E
:1007A00084238C938881842308C0623041F4242FF1
:1007B000209582238C938881842B888302C0842B8C
:1007C0008C939FBFDF91CF910895FC01848595851F
:1007D000FC01E05CFF4F20813181FC01EE5BFF4FAB
:1007E00080819181281B390B2F733327C90108950C
:1007F000FC0184859585FC01E05CFF4F40815181BF
:10080000FC01EE5BFF4F208131814217530741F01D
:100810000190F081E02DE80FF91F208130E002C047
:100820002FEF3FEFC9010895FC0184859585FC01F8
:10083000E05CFF4F40815181FC01EE5BFF4F208166
:1008400031814217530781F0A081B181A80FB91FF0
:100850008C91208131812F5F3F4F2F73332731835C
:100860002083282F30E002C02FEF3FEFC901089509
:10087000FC0181A1882329F0A489B5898C9186FF88
:10088000FBCF11A20895CF93DF93FC012685378516
:10089000D901A05CBF4F8D919C91119701968F73E8
:1008A0009927E901CE5BDF4F48815981841795076D
:1008B000D9F30D90BC91A02DA20FB31F6C93A68508
:1008C000B785A05CBF4F11969C938E93A689B7897C
:1008D0002C9181E090E0078C02C0880F991F0A9448
:1008E000E2F7282B2C9381E081A30488F589E02D81
:1008F00080818064808381E090E0DF91CF910895D2
:1009000008951F920F920FB60F9211242F933F93C9
:100910004F938F939F93EF93FF938091C00082FD3D
:100920001CC04091C6008091F8019091F901019698
:100930008F7399272091FA013091FB018217930759
:1009400071F0E091F801F091F901E854FE4F408315
:100950009093F9018093F80102C08091C600FF9145
:10096000EF919F918F914F913F912F910F900FBEDB
:100970000F901F90189582E591E00E94E503892B66
:1009800011F00C94800408951F920F920FB60F92ED
:1009900011242F933F938F939F93EF93FF93209175
:1009A000B4013091B5018091B6019091B70128173B
:1009B000390731F48091C1008F7D8093C10014C04C
:1009C000E091B601F091B701EC58FE4F2081809183
:1009D000B6019091B70101968F7399279093B70153
:1009E0008093B6012093C600FF91EF919F918F9164
:1009F0003F912F910F900FBE0F901F901895CF929F
:100A0000DF92EF92FF92CF93DF93EC016A017B01BB
:100A1000411581EE580761057105F9F0EC89FD89F2
:100A200081E090E008A002C0880F991F0A94E2F7C5
:100A3000808360E079E08DE390E0A70196010E9459
:100A4000AA06215031094109510956954795379514
:100A50002795211580E1380798F0EC89FD891082EF
:100A600060E874E88EE190E0A70196010E94AA0672
:100A700021503109410951095695479537952795D8
:100A8000E889F9893083EA89FB89208319A2EE89F4
:100A9000FF89408181E090E09C010C8C02C0220F14
:100AA000331F0A94E2F7422B4083EE89FF8940818D
:100AB0009C010D8C02C0220F331F0A94E2F7422BD7
:100AC0004083EE89FF8940819C010E8C02C0220F79
:100AD000331F0A94E2F7422B4083EE89FF8920817D
:100AE0000F8C02C0880F991F0A94E2F78095822329
:100AF0008083DF91CF91FF90EF90DF90CF900895AA
:100B0000109255011092540188EE93E0A0E0B0E0FD
:100B10008093560190935701A0935801B0935901C7
:100B200084E091E0909353018093520188EB91E02F
:100B300090935F0180935E0184E791E0909361015F
:100B40008093600185EC90E0909363018093620153
:100B500084EC90E0909365018093640180EC90E0D8
:100B6000909367018093660181EC90E09093690116
:100B70008093680182EC90E090936B0180936A010E
:100B800086EC90E090936D0180936C0184E08093FB
:100B90006E0183E080936F0187E08093700185E0B0
:100BA0008093710181E08093720108950E9455063F
:100BB0000E948901CBEBD4E00E9404022097E1F36C
:100BC0000E94BB04F9CFCF92DF92EF92FF920F9376
:100BD0001F93CF93DF936C01EB017A01E60EF71EB2
:100BE00000E010E00BC06991D601ED91FC910190FD
:100BF000F081E02DC6010995080F191FCE15DF05FC
:100C000091F7C801DF91CF911F910F91FF90EF9065
:100C1000DF90CF9008951F920F920FB60F9211247C
:100C20002F933F938F939F93AF93BF938091FC013A
:100C30009091FD01A091FE01B091FF01309104025D
:100C4000232F2D5F2D3720F40196A11DB11D05C066
:100C5000232F2A570296A11DB11D209304028093D1
:100C6000FC019093FD01A093FE01B093FF018091E0
:100C7000000290910102A0910202B091030201963C
:100C8000A11DB11D8093000290930102A093020266
:100C9000B0930302BF91AF919F918F913F912F919C
:100CA0000F900FBE0F901F901895789484B58260B6
:100CB00084BD84B5816084BD85B5826085BD85B500
:100CC000816085BDEEE6F0E0808181608083E1E8AF
:100CD000F0E01082808182608083808181608083E7
:100CE000E0E8F0E0808181608083E1EBF0E08081EA
:100CF00084608083E0EBF0E0808181608083EAE7BC
:100D0000F0E0808184608083808182608083808144
:100D1000816080838081806880831092C100089503
:100D2000F8940C94D206A29FB001B39FC001A39F78
:100D300001D0B29F700D811D1124911D08950E9454
:100D40009306A59F900DB49F900DA49F800D911DBB
:100D500011240895A1E21A2EAA1BBB1BFD010DC090
:100D6000AA1FBB1FEE1FFF1FA217B307E407F5075B
:100D700020F0A21BB30BE40BF50B661F771F881F37
:100D8000991F1A9469F760957095809590959B01CD
:100D9000AC01BD01CF010895EE0FFF1F0590F49146
:080DA000E02D0994F894FFCF47
:100DA800000000004304E305E5031404F8033804D5
:00000001FF
